:1000000000308A0055280000FF00030E8301A10084
:100010000A08A0008A010408A2007708A300780853
:10002000A4007908A5007A08A600831383128B1E0A
:100030001B280B192C28220884002308F700240809
:10004000F8002508F9002608FA0020088A00210E89
:100050008300FF0E7F0E09008A110A122F28FB3041
:100060008100A80A0319A90A2808F43C031D512895
:10007000290B5128A70803194328FC308316880050
:10008000831288104828FC30831688008312881455
:10009000A70803194D2800304E280130A700A901F8
:1000A000A8010B118A110A121B2803081F398300AB
:1000B0000130A700A901A80183161F149F141F1562
:1000C0009F1107309C0083130108C739083881004D
:1000D000FC30880083128810FB3081008B16C03002
:0600E0008B04712863008F
:02400E00323F3F
:00000001FF
;PIC16F877A
;CRC=B2CE  CREATED="07-mai-18 11:24"
