:1000000000308A006B280000FF00030E8301A1006E
:100010000A08A0008A010408A2007708A300780853
:10002000A4007908A5007A08A600831383128C30F7
:100030008400801E1D288C1A2E2822088400230884
:10004000F7002408F8002508F9002608FA0020081F
:100050008A00210E8300FF0E7F0E09008A110A120A
:1000600049280830F800AD012C08F7007708AD06E4
:10007000F70CF80B36280C1E3B28FE30831698052B
:1000800083122D1C46288316181483122C089900FD
:1000900008008C1E49281808A7001A08F800083024
:1000A000AC00AB011A08F7007708AB06F70CAC0BF5
:1000B000542801302B05A706A71C60281812181613
:1000C0007808AB00AC0031202908AC0031208C123C
:1000D0008A110A121D2803081F398300A701CF3097
:1000E00083169900E2309800D03083129800AA015C
:1000F000A90183161F149F141F159F1107309C0020
:0E01000083138C16C03083128B048528630095
:02400E00723FFF
:00000001FF
;PIC16F877A
;CRC=358B  CREATED="17-jun-18 20:29"
