:1000000000308A007D2800003A08F8013902031800
:100010000C283908F7001828F7010830BB00B90D83
:10002000F70D3A0877020318F700F80DBB0B0F28FD
:1000300008002008840083132118831739088000E2
:10004000840A8001A00A0319A10A08002030341E86
:100050003030B5003308F700B31F3628F709F70A28
:100060007708B3002D30B500B41734143308B90045
:100070006430BA0004207708B30030307807B60047
:100080003308B9000A30BA00042030307707B800CE
:1000900030307807B7003508F700303036020319E2
:1000A0005528B414B41B341569283508B60020301F
:1000B000B50030303702031961283414B41BB4146E
:1000C0006928031D3414031D69283608B700203041
:1000D000B60034197028B418732834187628792893
:1000E0003508B90019203608B90019203708B900B9
:1000F00019203808B9001920972803081F398300F0
:10010000813083169900A6309800903083129800B1
:10011000A101A00107309F0083131430A200A101A8
:100120002330A0002208B3001830B40026280A307B
:10013000B900192023308400831300300004031910
:10014000B228B4010408B3003410831B341400082F
:100150000C1EA828990033088400831334188317D1
:10016000840A9D280D300C1EB32899000A300C1EFD
:08017000B72899009A286300EA
:02400E00623F0F
:00000001FF
;PIC16F628A
;CRC=1651  CREATED="08-jun-18 10:36"
