:1000000000308A003A280000FF00030E8301A1009F
:100010007F08A0000A08A7008A01A00E0408A20019
:100020007708A3007808A4007908A5007A08A6003C
:10003000831383128C308400801E20288C1A312870
:10004000220884002308F7002408F8002508F90096
:100050002608FA0027088A00210E8300FF0E7F0E73
:1000600009008C1E31281A080C1E342899008C12A5
:100070008A11202803081F398300813083169900D4
:10008000A230980090308312980007309F008313AD
:0C00900083168C16C03083128B046300B2
:02400E00623F0F
:00000001FF
;PIC16F628A
;CRC=31BA  CREATED="13-jun-18 09:39"
