:1000000000308A0050280000FF00030E8301A10089
:100010000A08A0008A010408A2007708A300780853
:10002000A4007908A5007A08A600831383120B1E8A
:100030001B288B182C28220884002308F70024088A
:10004000F8002508F9002608FA0020088A00210E89
:100050008300FF0E7F0E09008A110A122F28AB08B9
:1000600003193428003035280130AB008B108A1179
:100070000A121B282D3084008313000803194D2811
:100080000630F800F701F70B4328F80B42287B30C5
:10009000F700F70B4928800B40288A110A127E28A6
:1000A00003081F398300AB0183161F149F141F150B
:1000B0009F1107309C00831301308312A700023088
:1000C000A8004430A9000830AA00831681138312C7
:1000D0000B16C0308B04831601178312AC012C0859
:1000E0000339273E840083130008AD00831688017E
:1000F00083122D0888000A30AD003A28AB08031996
:100100008328AC038628AB080319AC0A6F28630068
:02400E00723FFF
:00000001FF
;PIC16F877A
;CRC=81ED  CREATED="02-mai-18 10:52"
