:1000000001308A00D62900002E080739F7002E0C8F
:10001000F800F80CF80C1F30F80578083007840059
:10002000831331188317F801F80AF70A1828F80D16
:10003000F70B1728AF080319202878088004232815
:10004000F8097808800508000330B802031C32283C
:1000500038308400831300080319322830283028F0
:10006000800B2F2808002508053C031C442827087E
:100070000339203E840083130008B70083168801EB
:100080008312370888004828831688018312880164
:10009000A40803194D28A7034E28A70AB80125086C
:1000A000B7000330BA00E830B9001030BB00F701E8
:1000B000FA01B80CB70C031C63283908F7070318BA
:1000C000FA0A3A08FA07FA0CF70CF90CF80CBB0B11
:1000D00059287908FA007808E83EAD007A08AE00A1
:1000E000033003180430AE071430B7002608B800F8
:1000F000F701F801370803103818F707F70CF80C68
:10010000B818F707F70CF80C3819F707F70CF80CC4
:10011000B819F707F70CF80C381AF707F70CF80CB2
:10012000B81AF707F70CF80C381BF707F70CF80CA0
:10013000B81BF707F70CF80CB0017808AF00643C67
:10014000B100B2013008031C300FB2022608063C91
:10015000031DAF28B0016430AF00B201B1012E0819
:10016000B8002D08B700BA016430B900F801F901F0
:10017000F701FA013A08031DC02839080319DA28E3
:100180001030BB000310B70DB80DF70DFA0D3A088B
:100190007A02031DCD2839087702031CD6283908B6
:1001A000F702031CFA033A08FA020314F80DF90DDA
:1001B000BB0BC2287908B4007808B300B601B501BA
:1001C00036083402031C1629031DEA2833083502B9
:1001D00003181629EB3083168900831209113008A1
:1001E000B700B70AB7030319F928FF30B800242075
:1001F000F2282F08B80024202608053C031C0529F6
:10020000EB3083168900831209153208B700B70A4C
:10021000B70303190F29FF30B8002420082931083B
:10022000B8002420B50A0319B60AE0280800A8017E
:100230003530A9003430AA003330AB000130AC00B7
:100240002C08033C031CD3292908AE000130AF0061
:10025000B101B00104202908AE00AF01B101803026
:10026000B00004202A08AE000130AF00B101B00197
:1002700004202A08AE00AF01B1018030B000042094
:100280002B08AE000130AF00B101B00104202B08F3
:10029000AE00AF01B1018030B000042028302C073F
:1002A000840083130008AD00AE00AF01B101B001BE
:1002B00004202D08AE00AF01B1018030B000042051
:1002C0002C08023C031D7929C7308316860083124F
:1002D00086187929A40803196F2900307029013084
:1002E000A400C7308316860083128618792933202C
:1002F00071292C08033C031D9029C7308316860002
:100300008312061890292508013C03189029A5039B
:10031000C730831686008312061890293320882957
:100320002C08033C031DA729C730831686008312BF
:100330000619A7292508053C031CA729A50AC730CB
:100340008316860083120619A72933209F292C0BB8
:10035000BC29C7308316860083120618BC292608DC
:10036000013C0318BC29A603C730831686008312FC
:100370000618BC293320B4292C0BD129C730831689
:10038000860083120619D1292608053C031CD129B1
:10039000A60AC7308316860083120619D129332096
:1003A000C929AC0A20298A110A12F32903081F3926
:1003B0008300A4010530A500A600A70183161F1421
:1003C0009F141F159F1107309C0083130130831267
:1003D000A0000230A1000430A2000830A300831660
:0C03E0008113831217293320F2296300D7
:02400E00723FFF
:00000001FF
;PIC16F877A
;CRC=1F05  CREATED="05-mai-18 23:38"
