:1000000000308A001928000026308400831300087D
:10001000031918280530F800F701F70B0D28F80B25
:100020000C282E30F700F70B13281628800B0A280F
:10003000080003081F398300193083169900A23085
:10004000980090308312980083161F149F141F1578
:100050009F1107309C0083131F109F101F159F11C5
:100060001F1383121F139F1783169F1783121F14CA
:10007000A301A4010030F8001F08C73978049F00CD
:100080000130A60004201F151F19442883161E08DE
:100090008312A1001E08A20021080C1E4D28990001
:1000A0000430A500FA30A6000420A50B5228083021
:1000B000F8001F08C73978049F000130A60004200B
:1000C0001F151F19612883161E088312A1001E0820
:1000D000A20021080C1E6A2899000430A500FA30FD
:0C00E000A6000420A50B6F283A2863003E
:02400E00723FFF
:00000001FF
;PIC16F877A
;CRC=5DDB  CREATED="14-jun-18 15:06"
