:1000000000308A00A6280000E7308316860083129D
:1000100086118316860083120612F8308316870035
:1000200083120710831687008312871083168700B8
:10003000831207116B308316880083120811831610
:100040008800831208128316880083128813080020
:100050003E080739F7003E0CF800F80CF80C1F308A
:10006000F805780840078400831341188317F801C6
:10007000F80AF70A3C28F80DF70B3B28BF080319CC
:100080004428780880044728F80978088005080083
:1000900020303A07840083130008BB000420BC0111
:1000A0003C08073C031C78283B08F7003C08F80094
:1000B00003195E280310F70CF80B5A28770801394A
:1000C000031976283C08073C303E8400831300085F
:1000D000BD00BE000130BF00C101C00128203D08A5
:1000E000BE00BF01C1018030C0002820BC0A5028DA
:1000F0000800061CA3283808BA004820B9080319CC
:100100008728B80A38080F3C0319B9018E28B908A6
:10011000031D8E28B80B8E280130B9003230BA008A
:100120003A308400831300080319A3280630F8002E
:10013000F701F70B9928F80B98287B30F700F70B9D
:100140009F28800B96288A110A12E92803081F3974
:1001500083000130B800B90083161F149F141F15C7
:100160009F1107309C008313FC308312A000603085
:10017000A100DA30A200F230A3006630A400B6304D
:10018000A500BE30A600E030A700FE30A800F63083
:10019000A900EE30AA003E30AB009C30AC007A30B3
:1001A000AD009E30AE008E30AF003330B000343042
:1001B000B1003830B2003930B3003A30B4004230C8
:1001C000B5004430B6004730B7000420BA014820DB
:0601D0007928E828630015
:02400E00723FFF
:00000001FF
;PIC16F877A
;CRC=3227  CREATED="08-abr-18 20:41"
