:1000000000308A00AA28000003308316880083127B
:1000100088118316880083120811831688008312C2
:1000200088128316880083120813831688008312AF
:100030008813FC3083168600831206108316860010
:10004000831286100330831688008312081208007A
:100050003E080739F7003E0CF800F80CF80C1F308A
:10006000F805780840078400831341188317F801C6
:10007000F80AF70A3C28F80DF70B3B28BF080319CC
:100080004428780880044728F80978088005080083
:1000900020303A07840083130008BB000420BC0111
:1000A0003C08073C031C78283B08F7003C08F80094
:1000B00003195E280310F70CF80B5A28770801394A
:1000C000031976283C08073C303E8400831300085F
:1000D000BD00BE000130BF00C101C00128203D08A5
:1000E000BE00BF01C1018030C0002820BC0A5028DA
:1000F0000800881CA7283808BA004820B908031946
:100100008728B80A38080F3C0319B9018E28B908A6
:10011000031D8E28B80B8E280130B9000230BA00BA
:100120009630BB003B308400831300080319A528D8
:100130000630F800F701F70B9B28F80B9A287B3064
:10014000F700F70BA128800B9828BA0B90288A118A
:100150000A12ED2803081F3983000130B800B900E6
:1001600083161F149F141F159F1107309C008313C3
:10017000FC308312A0006030A100DA30A200F2301F
:10018000A3006630A400B630A500BE30A600E03063
:10019000A700FE30A800F630A900EE30AA003E30DD
:1001A000AB009C30AC007A30AD009E30AE008E309B
:1001B000AF004330B0004230B1004530B2004630AD
:1001C000B3004730B4003030B5003130B6004430B1
:0E01D000B7000420BA0148207928EC2863000B
:02400E00723FFF
:00000001FF
;PIC16F877A
;CRC=E35B  CREATED="09-abr-18 09:53"
