:1000000004308A00DE2C0000C7306239E932EC305F
:10001000A032202B693A6F3900000D054C22521D89
:10002000A0126610201020102010201020050000C3
:100030003C3084008313000803192B280630F80095
:10004000F701F70B2128F80B20287B30F700F70B7E
:100050002728800B1E280800430EF039F7000F30C8
:100060000805770488000000081483160810023081
:10007000F700F70B39283C2800008312081083167C
:100080000810831208000808F700080E0F39F8005E
:100090000800831608108810081183128810831630
:1000A00088100F300805F038880083120815831671
:1000B0000811000083120814831608100000831230
:1000C00043207808C300081083160810000083122C
:1000D0000814831608106C286D2800008312432032
:1000E0007808C2000810831608100F300805880031
:1000F0008312430EF700F030F70577084204F8004A
:100100007808C200C21F862883165128C008031D24
:100110008B2888108C28881483168810000083127E
:1001200008118316081100008312081083160810A6
:100130008312410EC2000F30C2054208C3002C20BA
:1001400041080F39C200C3002C2008002830AF003E
:100150000C30B0000130B1000630B2000810831638
:1001600008108312881083168810831208118316D2
:1001700008110F30080588000810881008110F308A
:100180008312BC0018200130AE002E08033C031C73
:10019000D1280330C3002C200530BC001820AE0A43
:1001A000C5280230C3002C200530BC001820AE0149
:1001B0002E08033C031CE8282F302E0784008313ED
:1001C0000008B300C0013308C1004920AE0AD82896
:1001D0008A110A12012D3D0BEE28F1284030BE0095
:1001E000F228BE0101303C02BE073E088038BF0045
:1001F000C0013F08C100492008003B08073A031925
:100200000B290B3A03191029063A03191829023A47
:1002100003191E2923290130BC00BD00EB20282929
:10022000C0010130C10049200230BC00182028293B
:100230000130BC000230BD00EB202829C001103085
:10024000C100492028290130C0003B08C1004920D5
:1002500008000B08AE008B13831603178C170C14C1
:100260000000000083120313AE1B8B1703170C084A
:100270007F3903197D290313AE0003170D080313FB
:10028000AF0003170F080313B0002E08BB00FD20BA
:100290002F0803178D000313300803178F00031373
:1002A0000B08B1008B13831603178C170C14000076
:1002B000000083120313B11B8B1703170C0D0E0DD7
:1002C0007F3903197D290313AE0003170D080313AB
:1002D000AF0003170F080313B0002E08BB00FD206A
:1002E0002F0803178D000313300803178F008D0AA2
:1002F00003198F0A03132929031703138A110A12FA
:100300000E2D8E30F7002F08F8002E08F900FA01A4
:10031000F808031D95297908F800F9010830F7025B
:10032000F808031D9529F7019D290310F81B9C2946
:10033000F90DF80DF7039529F8138A110A12222DE9
:100340003B080319102AC3003F080319102AC307EA
:100350000318B1297F30C302031C102A0319102A85
:10036000B5298130C3070318102A4308F700F801A4
:10037000F901FA013C08C700C7173D08C6003E084E
:10038000C5001830C300C401451CDE294208FA0725
:10039000031CD029F90A031DD029F80A0319C41730
:1003A0004108F907031CD729F80A0319C4174008A4
:1003B000BD00BD173D08F8070318C417C40DF80C9D
:1003C000F90CFA0CC70CC60CC50C0310C30BC329DF
:1003D0000130F7070318102AF81BF529C70DFA0D8D
:1003E000F90DF80DF7030319102AC71F062AFA0A98
:1003F000031D062AF90A031D062AF80A031D062A08
:10040000F80CF90CFA0CF70A0319102A3C08C4007E
:100410004008C406C41F0E2AF817142AF813142A19
:10042000F701F801F901FA01080080308318B706D6
:10043000BC01BD013308BB003708BB0632080319F5
:10044000052BBA00F700360803190E2BBA02031960
:10045000AA2A031C682A3708C000C0173808BF0042
:100460003908BE00BD010310C00CBF0CBE0CBD0C92
:10047000BA0B322ABB1F3F2A3C14222B3C103A10E5
:100480003C16353084008313372B3C12BB1B522A99
:100490003A1C5D2AC00CBF0CBE0CBD0CF70A031938
:1004A0001D2B5D2AC01B602A0310BD0DBE0DBF0DA4
:1004B000C00DF70303191D2B522A3C17CA2A3C13FF
:1004C0003308BB00BB1F662AC017162BC013162BA0
:1004D0003608BA00F7003208BA023308C000C01765
:1004E0003408BF003508BE00BD010310C00CBF0CAE
:1004F000BE0CBD0CBA0B742ABB1F812ABC14222B64
:10050000BC103A10BC16393084008313372BBC1250
:10051000BB1B942A3A1C9F2AC00CBF0CBE0CBD0CFE
:10052000F70A03191D2B9F2AC01BA22A0310BD0D19
:10053000BE0DBF0DC00DF70303191D2B942ABC1768
:10054000CA2ABC133708BB00BB1FA82AC017162B2A
:10055000C013162B3708C000C0173808BF00390871
:10056000BE00BB1FB72AC0133C15222B3C11BD0196
:100570003A10353084008313372BBB1BE02A330835
:10058000BB003A1CCA2AC00CBF0CBE0CBD0CF70A3B
:1005900003191D2BBD1FDB2ABE0A031DDB2ABF0A60
:1005A000031DDB2AC00A031DDB2AC00CBF0CBE0CD6
:1005B000F70A03191D2B3C1B5F2ABC1BA12AFF2A2B
:1005C0008030C006C01FE82A222B3708BB00F52A5E
:1005D0003308BB00C008031DF52ABF08031DF52A18
:1005E000BE08031DF52AF701162BC01BFF2A0310B6
:1005F000BD0DBE0DBF0DC00DF70BF52A1D2BBB1F8A
:10060000032BC017162BC013162B3608F70037081C
:10061000C0003808BF003908BE00162B3208F700AA
:100620003308C0003408BF003508BE004008F80099
:100630003F08F9003E08FA00552BF701F801F901CF
:10064000FA01552BBD01BE09BF09C009BD09BD0A8C
:10065000031D302BBE0A031D302BBF0A0319C00A2D
:100660003C183E2ABC18802A3C19B62AE52A000804
:10067000BE07031C412BBF0A031D412BC00A0319EF
:100680003A1484030008BF07031C492BC00A03194E
:100690003A1484030008801F803AC00703183A14F4
:1006A0003C1A452ABC1A872ABD2A08000B08AF004D
:1006B0008B13831603178C170C1400000000831291
:1006C0000313AF1B8B1703188D2B03170C087F39EF
:1006D0000313AF0003170D080313B00003170F082F
:1006E0000313B1002F08BB00FD20300803178D0055
:1006F0000313310803178F0003130B08B2008B1389
:10070000831603178C170C140000000083120313C8
:10071000B21B8B17AE0B8D2BAC2B03170C0D0E0DD4
:100720007F390313AF0003170D080313B00003173D
:100730000F080313B1002F08BB00FD20300803177A
:100740008D000313310803178F008D0A03198F0AD8
:1007500003100313AE0B562B08008318B22B433043
:1007600084008313F701F801F901FA01C301C40100
:10077000C501C6014208410440043F040319F02B9F
:100780002030C7000310BB0DBC0DBD0DBE0DC30D49
:10079000C40DC50DC60D42084602031DD92B4108E4
:1007A0004502031DD92B40084402031DD92B3F08E5
:1007B0004302031CEA2B3F08C3024008031C400FFE
:1007C000C4024108031C410FC5024208031C420F2A
:1007D000C6020314F70DF80DF90DFA0DC70BC22B65
:1007E00043088000840A44088000840A4508800089
:1007F000840A4608800008000408B3003208B500E7
:1008000003191B2C3108BE003008BD002F08BC00A6
:100810002E08BB00C201C1012030C0008230BF00E1
:10082000A0217A08B1007908B0007808AF007708F5
:10083000AE00B50B022C3108BE003008BD002F08F9
:10084000BC002E08BB003B08B63CBB00FA013C08CC
:10085000BF00BC170310BC0CBD0CBE0CFA0CF90C8D
:10086000F80CF70CBB0B2A2CBF1F412CF709F80919
:10087000F909FA09F70A0319F80A0319F90A031919
:10088000FA0A7A08B1007908B0007808AF00770852
:10089000AE00B11F582CB303B316AE09AF09B009AF
:1008A000B109AE0A0319AF0A0319B00A0319B10A54
:1008B0003B30BA009A30B900CA30B800B7010A30EC
:1008C000B50032080319B30A83142E308400831351
:1008D0003108BE003008BD002F08BC002E08BB0048
:1008E0003A08C2003908C1003808C0003708BF0004
:1008F000AD237808F708031D902C320A350203193E
:10090000902C33080319922C0F39350203198A2CC5
:100910000318C22CB31BC22C331B922C2030BE2CCC
:100920002030B305B31EA02CB3123208031DB3034D
:100930007708B3002D30BB00FD203308F700B3016A
:1009400032083502031DAE2C7708B3002E30BB00F1
:10095000FD203308F7002030B30500303030B31EDF
:10096000BE2CB3123208031DB3037708B3002D3039
:10097000BB00FD203308F700B3013030F7077708DC
:10098000BB00FD2083103A08BE003908BD003808BE
:10099000BC003708BB00C201C101C0010A30BF0062
:1009A000AD237A08BA007908B9007808B80077084A
:1009B000B700B50B642C8A110A12B52D03081F3934
:1009C0008300831686128312861683161F149F14C3
:1009D0001F159F1183138312A001A10183161F10FD
:1009E0009F141F159F1583121F139F1783169F17A0
:1009F00083121F140030F8001F08C73978049F00C5
:100A0000A6282030F700F70B032D062D0000043038
:100A100003178D0000308F0003132929A901A801B5
:100A2000A701A601AD01AC01AB01AA011F151F1959
:100A3000172D1E08FA0083161E088312AE001E082A
:100A4000AF0081297A08AD007908AC007808AB00C6
:100A50007708AA00F030BE00CE30BD001030BC00D8
:100A60007430BB002D08C2002C08C1002B08C00048
:100A70002A08BF00A0217A08B1007908B0007808E0
:100A8000AF007708AE007A08BE007908BD0078088C
:100A9000BC007708BB002D08C2002C08C1002B0841
:100AA000C0002A08BF00A0217A08B1007908B00070
:100AB0007808AF007708AE00BE01BD012030BC0051
:100AC0008030BB002D08C2002C08C1002B08C000DC
:100AD0002A08BF00A02183143108B5003008B400F3
:100AE0002F08B3002E08B2007A08B9007908B800C0
:100AF0007808B7007708B60015227A08B10079089F
:100B0000B0007808AF007708AE0083107A08B5000F
:100B10007908B4007808B3007708B200B901E03072
:100B2000B8001030B7008830B60015227A08A90046
:100B30007908A8007808A7007708A6000D300317E9
:100B40008D0000308F00031007300313AE005623D2
:100B5000893084002908B1002808B0002708AF00B8
:100B60002608AE000230B200FC2B113003178D00B6
:100B700000308F0003140B300313AE0056230230F5
:100B8000AE00FA30BC001820AE0BC12D162D63004C
:02400E00723FFF
:00000001FF
;PIC16F877
;CRC=7F43  CREATED="23-abr-18 15:22"
