:1000000003308A007D2B0000FF00030E8301A10056
:100010000A08A0008A010408A2007708A300780853
:10002000A4007908A5007A08A600831383128C30F7
:100030008400801C1D288C182E2822088400230888
:10004000F7002408F8002508F9002608FA0020081F
:100050008A00210E8300FF0E7F0E09008A110A120A
:100060003128B708031D3A2836086002031C3A28D5
:1000700000303B280130F700F70DF70DFC30F70595
:1000800077088316DF008312B508031D4D28340856
:100090006002031C4D2800304E280130F700031089
:1000A000F70D77088316DF048312B908031D5E2855
:1000B00038086002031C5E2800305F280130831678
:1000C000DF04F83088005F0883128800E00A8C1093
:1000D0008A110A121D28BA308400831300080319FC
:1000E0007E280630F800F701F70B7428F80B732808
:1000F0007B30F700F70B7A28800B712808008316F5
:1001000011141118812883123D088316DE00831212
:1001100094138C1183165E08831293000230941B93
:1001200098288C1D912800308316111B01308312F2
:10013000F80083165C0883123E048316DD005D0818
:10014000DE00831294138C1183165E0883129300D1
:100150000230941BB2288C1DAB2800308316111B73
:1001600001308312F800831611151119B528831276
:10017000080083165908DC0083127F208316590873
:10018000DA005A080438DB00DC0083127F20C8281C
:10019000C928000083165A08FB39DB00DC008312F3
:1001A0007F205230F700F70BD328D6280000080034
:1001B00003308316B402031CE728B4308400831391
:1001C00000080319E728E528E528800BE4288312B6
:1001D000080083165408F039D600540EF700F030AA
:1001E000F7057708F039D70056085504D800D9002C
:1001F0008312B920831657085504D800D9008312FA
:10020000B920080083164308D400D5018312E920E1
:100210000800831630088312BD008316310883124C
:10022000C300831632088312C2000830C0000230B7
:100230008316B300FA30BA0083126B208316B30B17
:100240001A2983123E088316DC0083127F200430B3
:100250008316B300FA30BA0083126B208316B30BF7
:100260002A293030D9008312B92004308316BA000D
:1002700083126B2002308316B300F930B40083126E
:10028000D8208316B30B3D293030D9008312B92012
:1002900004308316BA0083126B2002308316B30039
:1002A000F930B4008312D8208316B30B50293030B4
:1002B000D9008312B92001308316BA0083126B2053
:1002C00002308316B300F930B4008312D8208316AD
:1002D000B30B63292030D9008312B920400820389D
:1002E0008316B300C300831202210730BF003F15FD
:1002F0003F0808388316B300C3008312022101307F
:100300008316C3008312022102308316BA008312BF
:100310006B200230C100410804388316B300C300CB
:100320008312022102308316C3008312022102309D
:100330008316BA0083126B208A110A12F12B8316DE
:10034000D10151084F078400831350188317800888
:100350000319BF2951084F078400831350188317CE
:100360000008D2005208D3005308D4000130D50051
:100370008312E9200130F8008316D10AA1298312E3
:10038000080083164308F80142020318CA294208EC
:10039000F700D629F7010830C400C20DF70D430855
:1003A00077020318F700F80DC40BCD29831208005B
:1003B0008316C0014030C1003F08C20083124208CA
:1003C0008316C3008312C12177088316BF00C03093
:1003D0003F078400831300083E078038C200C30033
:1003E000831202210800831633080739F700330C03
:1003F000F800F80CF80C1F30F80578083507840071
:10040000831336188317F801F80AF70A082AF80D3B
:10041000F70B072AB4080319102A78088004132A56
:10042000F809780880058312080083163308073915
:10043000F700330CF800F80CF80C1F30F8057808BA
:10044000340784008313351883170008F800F70A6F
:100450002A2AF80CF70B292A83128A110A128D2CEA
:100460008316D7010408D6005710831B5714500E6B
:10047000F038D200D207E23ED300323ED500500819
:100480000F39D307D307D507E93ED400D407D407E3
:100490004F0E0F39D407D507D40DD50DD509D50D7D
:1004A0004F080F39D507D20D0730D1000A30D507D4
:1004B000D403031C572AD407D303031C5B2AD30796
:1004C000D203031C5F2AD207D103031C632AD13055
:1004D000840083130730560556138407D530040271
:1004E000031956170008F700031D7E2A561B7E2AA3
:1004F000561A9F2AD6197E2A2030812AD6155612DE
:100500003030F707D0010408CF005010831B50147F
:100510007708D80083124408840083134518831792
:10052000831658088000840A80018312C40A0319C4
:10053000C50A83164F088400831350188317840A52
:10054000561F6E2A83120800DE013A305F078400CE
:10055000831300088316BD00BE000130BF00831264
:10056000D82183163C08BE003B08BD008312C5019C
:10057000BF30C4000A30840083163E08D0003D0816
:10058000CF00831230228316D001BF30CF008312F8
:100590009F213A305F078400831300088316BD0053
:1005A000BE000130BF008312D82103105F0D2E3E24
:1005B000F800FA010318FA0A78088316BD007A08D1
:1005C000BE00031083125F0D343E84008313840A3F
:1005D0000008FA00840300088316BF007A08C000F0
:1005E0003D08840083133E188317840A4008800066
:1005F00084033F0880008312080003105F0D2E3E25
:10060000F800FA010318FA0A78088316B9007A0884
:10061000BA00031083125F0D343E84008313840AF2
:100620000008FA00840300088316BB007A08BC00A7
:100630003908840083133A188317840A3C08800021
:1006400084033B0880003A3083125F0784008313E1
:1006500000088316B900BE000130BF008312D82104
:1006600045308316B5005230B600B700B801D0014E
:10067000B530CF0083129F213A305F078400831387
:1006800000088316B900BE000130BF008312D821D4
:1006900002308316B900FA30BA0083126B20831639
:1006A000B90B4B2B031083125F0D343E8400831370
:1006B000840A00088316BA0084030008B9003A08C7
:1006C000BC003908BB008312A42208001030831636
:1006D000C400F701FA01C10CC00C031C752B4208C1
:1006E000F7070318FA0A4308FA07FA0CF70CF90C93
:1006F000F80CC40B6B2B8312080003081F3983000E
:10070000FF30AD00AD152D088316870083122D161E
:100710002D0883168700313093002830831294000F
:1007200083169417141308308312BE00C501C40148
:10073000DE01DF01E00183161F149F141F159F11B6
:1007400007309C0083138312A701A801AE01AF01FB
:10075000B001B101B201B301B401B501B601B701F5
:10076000B801B9010130BA000630BB000B30BC0043
:100770003730C6003630C7003530C8003430C900C5
:100780003330CA003230CB003130CC003030CD00B5
:100790003130CE003230CF003330D0004130D10084
:1007A0003430D2003530D3003630D4004230D5005A
:1007B0003730D6003830D7003930D8004330D90030
:1007C0002A30DA003030DB002330DC004430DD003A
:1007D0004E308316B0001030B1000230B2008312E8
:1007E0000929831681130430F100FA30BA0083120C
:1007F0006B20F10BFC2BFE2B8316F52B4530E10013
:100800007330E2006330E3006F30E4006C30E500E9
:100810006830E6006130E7002030E8006130E90030
:100820002030EA006330EB006F30EC007230ED00F6
:100830003A30EE002030EF00F0018316D001613035
:10084000CF0083129F218316BE010130BF008312A7
:10085000D82152308316A0003030A100A200A3009E
:100860002030A4004730A5003030A600A700A80023
:100870002030A9004230AA003030AB00AC00AD00FF
:10088000AE01D001A030CF0083129F21013083162A
:10089000BE00BF008312D8216030F80005389200F6
:1008A0000530831692008C14C03083128B0483169B
:1008B000B0013008033C031CE62E463030078400AC
:1008C00083130008B200B300B401B601B50183126E
:1008D000F32183163208B300B401B6018030B500AD
:1008E0008312F3218316B1013108033C031CCD2E82
:1008F0004A303107840083130008B200B30001308E
:10090000B400B6018030B5008312F321831632089B
:10091000B300B501B4018312152A7818CA2E8316C4
:10092000300DF700F70DFC30F705770831074E3E24
:10093000840083130008B200B4013208B3003030E1
:10094000B3020030031C0130B4023308FA3C031D2B
:10095000DF2C340FDF2C031083125F0D343E840034
:100960008313840A00088316B60084030008B500C8
:10097000B508031DBE2CB6080319DE2C0310831224
:100980005F0D343E84008313FF3080070318CB2CA7
:10099000840A80038403840A00088316B600840353
:1009A0000008B5003608BC003508BB008312A4223D
:1009B00028308316BA0083126B208316CB2E33089F
:1009C000F33C031D1A2D340F1A2D031083125F0DF3
:1009D000343E84008313840A00088316B60084031F
:1009E0000008B500B608031D192D3508FE3C031C90
:1009F000192D031083125F0D343E840083130130E0
:100A00008007031C062D840A800A8403840A0008D8
:100A10008316B60084030008B5003608BC0035080C
:100A2000BB008312A42228308316BA0083126B20E5
:100A30008316CB2EB408031D212D3308103C031858
:100A4000762DB408031D762D3308133C031C762D38
:100A5000031083125F0D2E3E84008313840A000866
:100A60008316B60084030008B5003608003C031C5A
:100A7000722D031083125F0D343EF800FA01031843
:100A8000FA0A78088316B5007A08B60003108312B4
:100A90005F0D2E3E84008313840A0008FA0084034D
:100AA00000088316B7007A08B8003508840083135D
:100AB00036188317840A38088000840337088000BA
:100AC000113033028312DF003A305F078400831352
:100AD00000088316B500BE000130BF008312D82184
:100AE000742D83168312FD22CA2E83163308143CFC
:100AF000031DD22DB408031DD22D8312DF015F0820
:100B0000023C031CBE2D03105F0D2E3EF800FA01BF
:100B10000318FA0A78088316B5007A08B60003109D
:100B200083125F0D343E84008313840A80018403A2
:100B3000800100308316B7007A08B80035088400B9
:100B4000831336188317840A380880008403370813
:100B50008000031083125F0D343E84008313840AE7
:100B600000088316B60084030008B5003608BC00F0
:100B70003508BB008312A422DF0A7F2D6430831660
:100B8000BA0083126B20DF013A305F0784008313C1
:100B900000088316B500BE000130BF008312D821C3
:100BA000CA2E83163408B6003308B5008312C50177
:100BB000B730C4001030840083163608D0003508E2
:100BC000CF00831230228316D001B730CF008312BA
:100BD0009F21DE08031DF52D03105F0D2E3E8400BE
:100BE0008313840A80018403800103105F0D2E3E6D
:100BF000F800FA010318FA0A78088316B5007A0893
:100C0000B60035088400831336188317840A000859
:100C1000B80084030008B70083125E08DE0A023CB5
:100C20008316B900BB010A30BA00BD013908BC0007
:100C3000BF010130BE003C080139F700FA01770816
:100C40007A040319322E3F08C1003E08C0003B0859
:100C5000C3003A08C2008312662379088316BF00D6
:100C60007808BE000310BD0CBC0C3C083D04031901
:100C7000492E3B08C1003A08C0003B08C3003A08AF
:100C8000C2008312662379088316BB007808BA0075
:100C90001B2E3E08F8003408C1003308C000C30111
:100CA0007808C200831266237908FA007808831650
:100CB0003707F80038080318380FFA077808B70024
:100CC0007A08B80035088400831336188317840A1D
:100CD0003808800084033708800083125E08023CD5
:100CE0000318C52E03105F0D2E3E84008313840A63
:100CF00000088316B60084030008B5003608003CDF
:100D0000031CC32E8312DE0103105F0D343EF80076
:100D1000FA010318FA0A78088316B5007A08B600B3
:100D2000031083125F0D2E3E84008313840A000893
:100D3000FA00840300088316B7007A08B800350863
:100D40008400831336188317840A380880008403CC
:100D5000370880008312DF0A5F088316C200033061
:100D6000C3008312C1217708DF003A305F07840097
:100D7000831300088316B500BE000130BF00831244
:100D8000D821C52E83168312FD22C8308316BA00DF
:100D900083126B208316B10A742C4630300784000E
:100DA00083130008B200B3000130B400B601B501EE
:100DB0008312F32183163208B300B401B6018030E8
:100DC000B5008312F3218316B00A592C582C630006
:02400E00323F3F
:00000001FF
;PIC16F877A
;CRC=5E8C  CREATED="04-jun-18 09:44"
