:1000000002308A00152A0000FF00030E8301A100C0
:100010000A08A0008A010408A2007708A300780853
:10002000A4007908A5007A08A600831383128C30F7
:100030008400801C1D288C182E2822088400230888
:10004000F7002408F8002508F9002608FA0020081F
:100050008A00210E8300FF0E7F0E09008A110A120A
:10006000312835083802031C372800303828013081
:10007000F7000310F70D7708F20037083802031C69
:100080004328003044280130F700F70DF70DFC300D
:10009000F7057708F20436083802031C51280030AF
:1000A00052280130F204F830831688007208831257
:1000B0008800B80A8C108A110A121D28703084003A
:1000C00083130008031971280630F800F701F70BB5
:1000D0006728F80B66287B30F700F70B6D28800B3C
:1000E0006428080094138C11710893000230941B4B
:1000F00080288C1D792800308316111B0130831253
:10010000F800080083161114111884284E30F100ED
:10011000831272200530F0005E206F082A04F00080
:10012000F100722083161115111994280130F00086
:1001300083125E2008006C08EF0082206C08ED003E
:100140006D080438EE00EF008220A628A7280000E2
:100150006D08FB39EE00EF0082205230F700F70BFC
:10016000AF28B228000008000330DA02031CC228BE
:100170005A308400831300080319C228C028C028FD
:10018000800BBF2808006708F039E900670EF70008
:10019000F030F7057708F039EA0069086804EB00E9
:1001A000EC009B206A086804EB00EC009B20080030
:1001B0006608E700E801C32008002B152B08083863
:1001C000D900E600D8208A110A129F2A0130E600E1
:1001D000D8200230F0005E208A110A12A02A0230D4
:1001E000E600D8200230F0005E208A110A12A82A08
:1001F0005E08E7000130E800C3200130F800080085
:10020000DB015B085907840083135A1883178008A1
:10021000031916295B085907840083135A1883179A
:100220000008DC00DE00F820DB0A01290800E101FB
:100230004030E2001430E3005430E4006008023C37
:10024000031824290130E000613060078400831323
:1002500000085F078038E500E600D82008005F0846
:100260000739F7005F0CF800F80CF80C1F30F805A0
:10027000780861078400831362188317F801F80A6D
:10028000F70A4329F80DF70B4229E00803194B2917
:10029000780880044E29F809780880050800F701DD
:1002A000F8015F0803106018F707F70CF80CE01866
:1002B000F707F70CF80C6019F707F70CF80CE019C2
:1002C000F707F70CF80C601AF707F70CF80CE01AB0
:1002D000F707F70CF80C601BF707F70CF80CE01B9E
:1002E000F707F70CF80C08002E08023C031D8029C4
:1002F0005E08DF006430E0004F21B0017808AF00F5
:100300002E08033C031D8D295E08DF000A30E00043
:100310004F217808AF070318B00A2E08043C031DCC
:10032000A9295E08AF070318B00A3008003C03187B
:10033000A0290130DF00E00017210130AE00A9291B
:100340000630DF000130E00017210630AE002F0834
:10035000B5002E08073C031DB5295E08DF00643098
:10036000E0004F21B2017808B1002E08083C031DBF
:10037000C2295E08DF000A30E0004F217808B1078B
:100380000318B20A2E08093C031DDF295E08B107D5
:100390000318B20A3208003C0318D6290630DF00E1
:1003A0000130E00017210630AE00DF290B30DF00FE
:1003B0000130E00017210B30AE003108B6002E08E6
:1003C0000C3C031DEB295E08DF006430E0004F2188
:1003D000B4017808B3002E080D3C031DF8295E080F
:1003E000DF000A30E0004F217808B3070318B40A91
:1003F0002E080E3C031D142A5E08B3070318B40A26
:100400003408003C03180C2A0B30DF000130E000F8
:1004100017210130AE00142A0130DF00E00017215F
:100420000130AE003308B700080003081F3983000D
:10043000FF30A900A9152908831687008312291601
:1004400029088316870031309300283083129400E6
:1004500083169417141308308312AA000130AE00DB
:10046000B001AF01B201B101B401B301B501B601F0
:10047000B701B80183161F149F141F159F11073071
:100480009C0083138312A701A80183168C14C0302B
:1004900083128B047830F8000538920001308316FF
:1004A0009200811304308312D900FA30F0005E20EC
:1004B000D90B552A0830AC000230D900FA30F000D0
:1004C0005E20D90B5E2A2A08EF0082200430D90072
:1004D000FA30F0005E20D90B682A3030EC009B2007
:1004E0000430F0005E200230D900F930DA00B42088
:1004F000D90B752A3030EC009B200430F0005E20D0
:100500000230D900F930DA00B420D90B822A303019
:10051000EC009B200130F0005E200230D900F93061
:10052000DA00B420D90B8F2A2030EC009B202C0855
:100530002038D900E600D8200730AB00DD28E628B7
:100540000230AD002D080438D900E600D820EF288D
:100550004530B9007330BA006330BB006F30BC0067
:100560006C30BD006830BE006130BF002030C0007C
:100570006130C1002030C2006330C3006F30C4005E
:100580007230C5003A30C6002030C700C801DA0119
:100590003930D9000021DF010130E000172152304D
:1005A000C9003030CA00CB00CC002030CD0047302D
:1005B000CE003030CF00D000D1002030D200423009
:1005C000D3003030D400D500D600D701DA0149304D
:1005D000D90000210130DF00E0001721F830831638
:1005E0008800831208158316880083120814831666
:1005F0008800831288143730D9003630DA0035305D
:10060000DB003430DC00DD015D08033C031C302CD2
:100610005908DF000130E000E201E1012F21590813
:10062000DF00E001E2018030E1002F215A08DF0005
:100630000130E000E201E1012F215A08DF00E00172
:10064000E2018030E1002F215B08DF000130E00093
:10065000E201E1012F215B08DF00E001E2018030CF
:10066000E1002F215C08DF000130E000E201E10140
:100670002F215C08DF00E001E2018030E1002F2142
:1006800059305D07840083130008DE00DF00E001BD
:10069000E201E1012F215E08DF00E001E20180308C
:1006A000E1002F21DD08031D682B0F308316860023
:1006B00083128619682B3130DE00F820AE0A013033
:1006C000DE0074210F30831686008312861D622B94
:1006D000DD08031D7E2B0F3083168600831206195A
:1006E0007E2B3230DE00F820AE0A0230DE007421AC
:1006F0000F30831686008312061D782BDD08031D3C
:10070000942B0F308316860083128618942B333077
:10071000DE00F820AE0A0330DE0074210F308316AD
:1007200086008312861C8E2B5D0BA92B0F3083163F
:10073000860083128619A92B3430DE00F820AE0A19
:100740000430DE0074210F30831686008312861D6C
:10075000A32B5D0BBE2B0F30831686008312061968
:10076000BE2B3530DE00F820AE0A0530DE007421E5
:100770000F30831686008312061DB82B5D0BD32B1A
:100780000F308316860083128618D32B3630DE0096
:10079000F820AE0A0630DE0074210F308316860082
:1007A0008312861CCD2B5D08023C031DEA2B0F3003
:1007B0008316860083128619EA2B3730DE00F82074
:1007C000AE0A0730DE0074210F30831686008312D4
:1007D000861DE42B5D08023C031D012C0F3083169F
:1007E000860083120619012C3830DE00F820AE0A8C
:1007F0000830DE0074210F30831686008312061D38
:10080000FB2B5D08023C031D182C0F30831686005D
:1008100083128618182C3930DE00F820AE0A093011
:10082000DE0074210F30831686008312861C122C82
:100830005D08033C031D2E2C0F30831686008312A7
:1008400006192E2C3030DE00F820AE0ADE017421AD
:100850000F30831686008312061D282CDD0A042B18
:04086000FB2A63000C
:02400E00323F3F
:00000001FF
;PIC16F877A
;CRC=AFA5  CREATED="25-mai-18 21:32"
