:1000000002308A002F2A0000FF00030E8301A100A6
:100010000A08A0008A010408A2007708A300780853
:10002000A4007908A5007A08A600831383128C30F7
:100030008400801C1D288C182E2822088400230888
:10004000F7002408F8002508F9002608FA0020081F
:100050008A00210E8300FF0E7F0E09008A110A120A
:10006000312838083B02031C37280030382801307B
:10007000F7000310F70D7708FB003A083B02031C5A
:100080004328003044280130F700F70DF70DFC300D
:10009000F7057708FB0439083B02031C51280030A0
:1000A00052280130FB04F830831688007B08831245
:1000B0008800BB0A8C108A110A121D285C08AA004D
:1000C0005D08B0005E08AF008A110A12662A74301B
:1000D00084008313000803197A280630F800F7011A
:1000E000F70B7028F80B6F287B30F700F70B76289A
:1000F000800B6D28080094138C1175089300023052
:10010000941B89288C1D822800308316111B013016
:100110008312F80008008316111411188D28831219
:100120002A08F5007B200530F400672073082B04B3
:10013000F400F5007B208316111511199D2801305C
:10014000F4008312672008007008F3008B20700809
:10015000F10071080438F200F3008B20AF28B028BA
:1001600000007108FB39F200F3008B205230F700D9
:10017000F70BB828BB28000008000330DD02031C81
:10018000CB285D308400831300080319CB28C928CD
:10019000C928800BC82808006B08F039ED006B0EE9
:1001A000F700F030F7057708F039EE006D086C04C1
:1001B000EF00F000A4206E086C04EF00F000A42013
:1001C00008006A08EB00EC01CC2008002C152C0874
:1001D0000838DC00EA00E1208A110A12B52A013051
:1001E000EA00E1200230F40067208A110A12B62AE0
:1001F0000230EA00E1200230F40067208A110A127E
:10020000BE2A6108EB000130EC00CC200130F80080
:100210000800DE015E085C07840083135D18831705
:10022000800803191F295E085C07840083135D188A
:1002300083170008DF00E1000121DE0A0A29080017
:10024000E5014030E6001430E7005430E80064086F
:10025000023C03182D290130E40065306407840056
:100260008313000863078038E900EA00E1200800F2
:1002700062080739F700620CF800F80CF80C1F3020
:10028000F805780864078400831365188317F8015C
:10029000F80AF70A4C29F80DF70B4B29E308031964
:1002A0005429780880045729F8097808800508003F
:1002B0001030E700F701FA01E40CE30C031C662997
:1002C0006508F7070318FA0A6608FA07FA0CF70C2C
:1002D000F90CF80CE70B5C2908003108023C031DFF
:1002E0007D296208E4006108E300E6016430E5006E
:1002F00058217908B3007808B2003108033C031D87
:100300008F296208E4006108E300E6010A30E50095
:1003100058217808B20779080318790FB307310814
:10032000043C031DAD296108B20762080318620F7F
:10033000B3073308003C0318A4290130E300E400AC
:1003400020210130B100AD290630E3000130E40086
:1003500020210630B1003208B8003108073C031DE7
:10036000BD296208E4006108E300E6016430E500AD
:1003700058217908B5007808B4003108083C031DFD
:10038000CF296208E4006108E300E6010A30E500D5
:1003900058217808B40779080318790FB507310890
:1003A000093C031DEE296108B40762080318620FB7
:1003B000B5073508003C0318E5290630E300013095
:1003C000E40020210630B100EE290B30E3000130BB
:1003D000E40020210B30B1003408B90031080C3C96
:1003E000031DFE296208E4006108E300E6016430B1
:1003F000E50058217908B7007808B60031080D3CAF
:10040000031D102A6208E4006108E300E6010A30D7
:10041000E50058217808B60779080318790FB7075F
:1004200031080E3C031D2E2A6108B6076208031826
:10043000620FB7073708003C0318262A0B30E30089
:100440000130E40020210130B1002E2A0130E30008
:10045000E40020210130B1003608BA00080003088A
:100460001F398300FF30A900A915290883168700CA
:10047000831229162908831687003130930028300B
:100480008312940083169417141308308312AB0060
:100490000130B100B301B201B501B401B701B60139
:1004A000B801B901BA01BB0183161F149F141F15AF
:1004B0009F1107309C0083138312A701A8014E30BF
:1004C000DC001030DD000230DE005E288316811370
:1004D00004308312DC00FA30F4006720DC0B6B2A56
:1004E0000830AD000230DC00FA30F4006720DC0B8D
:1004F000742A2B08F3008B200430DC00FA30F4005F
:100500006720DC0B7E2A3030F000A4200430F40099
:1005100067200230DC00F930DD00BD20DC0B8B2AC7
:100520003030F000A4200430F40067200230DC00FA
:10053000F930DD00BD20DC0B982A3030F000A4201B
:100540000130F40067200230DC00F930DD00BD200E
:10055000DC0BA52A2030F000A4202D082038DC0078
:10056000EA00E1200730AC00E628EF280230AE00B8
:100570002E080438DC00EA00E120F8284530BC00F1
:100580007330BD006330BE006F30BF006C30C00000
:100590006830C1006130C2002030C3006130C40047
:1005A0002030C5006330C6006F30C7007230C8000D
:1005B0003A30C9002030CA00CB01DD013C30DC00FC
:1005C0000921E3010130E40020215230CC00303019
:1005D000CD00CE00CF002030D0004730D1003030E9
:1005E000D200D300D4002030D5004230D6003030C5
:1005F000D700D800D900DA01DD014C30DC00092138
:100600000130E300E4002021F830831688008312D3
:100610000815831688008312081483168800831235
:1006200088147830F8000538920001308316920063
:100630008C14C03083128B043730DC003630DD0080
:100640003530DE003430DF00E0016008033C031C7D
:100650005B2C5C08E2000130E300E501E401382195
:100660005C08E200E301E5018030E40038215D0828
:10067000E2000130E300E501E40138215D08E20019
:10068000E301E5018030E40038215E08E20001303A
:10069000E300E501E40138215E08E200E301E50141
:1006A0008030E40038215F08E2000130E300E5011A
:1006B000E40138215F08E200E301E5018030E40055
:1006C00038215C306007840083130008E100E200F9
:1006D000E301E501E40138216108E200E301E501FD
:1006E0008030E4003821E008031D8A2B0F30831688
:1006F0008600831286198A2B3130E1000121B10A6C
:10070000E2010130E1006D210F3083168600831273
:10071000861D842BE008031DA12B0F308316860055
:1007200083120619A12B3230E1000121B10AE20146
:100730000230E1006D210F30831686008312061D02
:100740009B2BE008031DB82B0F3083168600831205
:100750008618B82B3330E1000121B10AE2010330E1
:10076000E1006D210F30831686008312861CB22BA8
:10077000600BCE2B0F308316860083128619CE2B8A
:100780003430E1000121B10AE2010430E1006D21C1
:100790000F30831686008312861DC82B600BE42B56
:1007A0000F308316860083120619E42B3530E100E2
:1007B0000121B10AE2010530E1006D210F308316FD
:1007C00086008312061DDE2B600BFA2B0F3083167A
:1007D000860083128618FA2B3630E1000121B10A17
:1007E000E2010630E1006D210F308316860083128E
:1007F000861CF42B6008023C031D122C0F3083165C
:10080000860083128619122C3730E1000121B10ACB
:10081000E2010730E1006D210F308316860083125C
:10082000861D0C2C6008023C031D2A2C0F308316F9
:100830008600831206192A2C3830E1000121B10A02
:10084000E2010830E1006D210F308316860083122B
:10085000061D242C6008023C031D422C0F30831619
:10086000860083128618422C3930E1000121B10A3A
:10087000E2010930E1006D210F30831686008312FA
:10088000861C3C2C6008033C031D592C0F3083163A
:10089000860083120619592C3030E1000121B10A7B
:1008A000E201E1016D210F30831686008312061DDF
:0A08B000532CE00A252B1C2B6300DB
:02400E00323F3F
:00000001FF
;PIC16F877A
;CRC=CF6E  CREATED="27-mai-18 11:28"
