:1000000001308A00DB290000A630F700F70B062834
:1000100000000800F3308316860083128611042046
:1000200008004E08CF00D0015008073C031C3B28B5
:100030004F080139D1005108D200F33083168600F1
:1000400083120611D20803192B28F3308316860079
:10005000831286153028F3308316860083128611AA
:100060000420F33083168600831206150420031043
:10007000CF0CD00A1428F3308316860083120611A1
:10008000831686008312D1018619D10AF3308316B4
:100090008600831206150420F3308316860083122F
:1000A00006115108F80078080800F330831686001E
:1000B000831286110420F3308316860083120615FE
:1000C0000420F3308316860083128615042008006E
:1000D0000A204030CE00112055200A204B08033959
:1000E000C03ECD00CE001120CC014A084C020318BE
:1000F00085284C0848078400831349188317000893
:10010000CD00CE001120CC0A752855200A208F3052
:10011000CE001120552008008318912860308400FB
:100120008313F701F801F901FA01E001E101E201AD
:10013000E3015F085E045D045C040319CF282030EE
:10014000E4000310D80DD90DDA0DDB0DE00DE10D43
:10015000E20DE30D5F086302031DB8285E0862022A
:10016000031DB8285D086102031DB8285C08600201
:10017000031CC9285C08E0025D08031C5D0FE10256
:100180005E08031C5E0FE2025F08031C5F0FE302C0
:100190000314F70DF80DF90DFA0DE40BA128600812
:1001A0008000840A61088000840A62088000840A52
:1001B00063088000080083144830840083133F08DC
:1001C000DB003E08DA003D08D9003C08D800DF011A
:1001D000DE01DD010A30DC008C204808C000400848
:1001E0003C02CC003D08CD000030031C0130CD02A4
:1001F0003E08CE000030031C0130CE023F08CF0085
:100200000030031C0130CF02D1010408D00051108E
:10021000831B511483145230840083134F08DB0076
:100220004E08DA004D08D9004C08D800DF01DE0185
:10023000DD016430DC008C205208F7005308F80020
:100240005408F9005508FA00500884008313511827
:1002500083177A08CF007908CE007808CD00770898
:10026000CC00D7010408D6005710831B5714831005
:100270004F08DB004E08DA004D08D9004C08D800C2
:10028000DF01DE01DD010A30DC008C20560884002D
:100290008313571883177708C100CD010408CC00D9
:1002A0004D10831B4D1483103F08DB003E08DA001D
:1002B0003D08D9003C08D800DF01DE010330DD0035
:1002C000E830DC008C204C08840083134D18831721
:1002D0007708C200CF010408CE004F10831B4F14D3
:1002E00083103F08DB003E08DA003D08D9003C08D7
:1002F000D800DF01DE01DD016430DC008C204E0817
:10030000840083134F1883177A08DB007908DA001A
:100310007808D9007708D8004208DC000A30DD00F0
:10032000F701F8015C0803105D18F707F70CF80CEB
:10033000DD18F707F70CF80C5D19F707F70CF80C48
:10034000DD19F707F70CF80C5D1AF707F70CF80C36
:10035000DD1AF707F70CF80C5D1BF707F70CF80C24
:10036000DD1BF707F70CF80C78085802C300C4012E
:10037000C501C601C7012630420784008313000867
:10038000C40026304307840083130008C5002630CC
:100390004107840083130008C6002630400784000C
:1003A00083130008C700C9014430C8000430CA00E4
:1003B000CB016820080003081F398300B701B6018C
:1003C00007309F008313A001A1013F30A600063033
:1003D000A7005B30A8004F30A9006630AA006D303E
:1003E000AB007D30AC000730AD007F30AE006F3029
:1003F000AF007730B0007C30B1003930B2005E30F1
:10040000B3007930B4007130B500831681133F30EA
:100410008312B800B900BA00BB00C9013830C80067
:100420000430CA00CB016820F330831686008312A3
:10043000861A2A2AB60A0319B70ABF01BE0137086D
:10044000BD003608BC00DB20F33083168600831223
:10045000861E242AF330831686008312061A3F2A4A
:10046000B701B601BF01BE013708BD003608BC00A8
:10047000DB20F330831686008312061E392A142AE5
:02048000630017
:02400E00623F0F
:00000001FF
;PIC16F628A
;CRC=1478  CREATED="23-abr-18 23:55"
