:1000000000308A008D2800002B3084008313000804
:10001000031918280530F800F701F70B0D28F80B25
:100020000C282E30F700F70B13281628800B0A280F
:100030008A110A12B7282E08F8012D020318232866
:100040002D08F7002F28F7010830AF00AD0DF70D90
:100050002E0877020318F700F80DAF0B26280800CA
:10006000200884008313211883172D088000840A38
:100070008001A00A0319A10A080078082B08AD0026
:100080006430AE001B207708AB0078083030031DC9
:100090005028AC1C5728AC1957282C1A203053284C
:1000A000AC112C122C14F8077808AD0030202B0866
:1000B000AD000A30AE001B207708AB007808303066
:1000C000031D6828AC196C282C1C6C282C1A2030B5
:1000D000F8077808AD0030203030AB072B08AD00B2
:1000E00030208A110A12C428800803198A28AC011A
:1000F0000408AB002C10831B2C1400080C1E7E2857
:1001000099002B08840083132C188317840A031981
:10011000850A74288A110A12C82803081F39830027
:10012000193083169900A2309800903083129800FD
:10013000A101A00183161F149F141F159F110730E2
:100140009C0083131F109F141F159F151F138312EC
:100150001F139F1783169F1383121F140030F8007C
:100160001F08C73978049F000A30AB0004281F1508
:100170001F19B8281E08A200A1012330A0002208E0
:10018000AB001B30AC003D2823308400831374285F
:100190000D300C1EC92899000A300C1ECD2899007C
:0401A000B728630019
:02400E00723FFF
:00000001FF
;PIC16F877A
;CRC=CB6D  CREATED="10-jun-18 12:35"
