:1000000000308A0074280000243084008313000824
:10001000031918280530F800F701F70B0D28F80B25
:100020000C282E30F700F70B13281628800B0A280F
:100030000800AB010408AA002B10831B2B14240E0C
:10004000F038A600A607E23EA700323EA900240829
:100050000F39A707A707A907E93EA800A807A8071F
:10006000230E0F39A807A907A80DA90DA909A90DE5
:1000700023080F39A907A60D0730A5000A30A907E4
:10008000A803031C3F28A807A703031C4328A707AE
:10009000A603031C4728A607A503031C4B282530ED
:1000A0008400831307302A052A13840729300402A9
:1000B00003192A170008F700031D66282A1B662863
:1000C0002A1A6E28AA19662820306928AA152A1229
:1000D0003030F70777080C1E6B289900840A2A1F16
:1000E00056288A110A12AC2803081F3983001930D8
:1000F00083169900A23098009030831298008316DE
:100100001F149F141F159F1107309C0083131F108D
:100110009F141F159F151F1383121F139F178316FC
:100120009F1783121F140030F8001F08C739780486
:100130009F000A30A40004201F151F199D28831654
:100140001E088312A1001E08A2001030840022089D
:10015000A4002108A30019280A300C1EAD2899001C
:100160000430A300FA30A4000420A30BB2289C287A
:0201700063002A
:02400E00723FFF
:00000001FF
;PIC16F877A
;CRC=C9D7  CREATED="11-jun-18 09:57"
