:1000000000308A008B2800002C3084008313000805
:10001000031918280530F800F701F70B0D28F80B25
:100020000C282E30F700F70B13281628800B0A280F
:1000300008002E08F8012D02031821282D08F700CA
:100040002D28F7010830AF00AD0DF70D2E0877020F
:100050000318F700F80DAF0B2428080020088400CF
:100060008313211883172D088000840A8001A00AB9
:100070000319A10A080078082B08AD006430AE000F
:1000800019207708AB0078083030031D4E28AC1CCF
:100090005528AC1955282C1A20305128AC112C1297
:1000A0002C14F8077808AD002E202B08AD000A307C
:1000B000AE0019207708AB0078083030031D6628A1
:1000C000AC196A282C1C6A282C1A2030F8077808EA
:1000D000AD002E203030AB072B08AD002E208A114A
:1000E0000A12C228800803198828AC010408AB0052
:1000F0002C10831B2C1400080C1E7C2899002B0844
:10010000840083132C188317840A0319850A722824
:100110008A110A12C92803081F398300193083166F
:100120009900A2309800903083129800A101A0019C
:1001300083161F149F141F159F1107309C008313F3
:100140001F109F141F159F151F1383121F139F1736
:1001500083169F1383121F140030F8001F08C7393D
:1001600078049F000A30AC0004201F151F19B62820
:100170001E08A200A1012330A0002208AB001B3002
:10018000AC003B280A30AD002E20233084008313BE
:1001900072280D300C1ECA2899000A300C1ECE2879
:1001A00099000230AB00FA30AC000420AB0BD3282E
:0401B000B52863000B
:02400E00723FFF
:00000001FF
;PIC16F877A
;CRC=A9A5  CREATED="08-jun-18 11:23"
