:1000000000308A0065280000A630F700F70B0628AC
:10001000000008008316861083128610042095289D
:100020003108B200B3013308073C031C31288316A2
:100030000610831206100420321C23288316861013
:1000400083128614272883168610831286100420B4
:10005000831606108312061404200310B20CB30A90
:100060001328831606108312061083168610831237
:1000700086140420831606108312061404208316A7
:1000800086148312B4018618B40AB408031D4C28E0
:10009000831686108312861004208316061083129E
:1000A000061404203408F80098288316861083125A
:1000B000861004208316061083120614042083166B
:1000C0008610831286140420992803081F398300A0
:1000D000A00107309F0083133F30A1000630A2002B
:1000E0005B30A3004F30A4006630A5006D30A60041
:1000F0007D30A7000730A8007F30A9006F30AA002C
:100100007730AB007C30AC003930AD005E30AE00F3
:100110007930AF007130B0008316061083120610DC
:1001200083168610831286100A282408B10010282E
:0601300055289928630028
:02400E00623F0F
:00000001FF
;PIC16F628A
;CRC=FE2F  CREATED="23-abr-18 20:03"
