:1000000000308A00282800001030A900F701FA010A
:10001000A60CA50C031C12282708F7070318FA0AD8
:100020002808FA07FA0CF70CF90CF80CA90B0828A9
:1000300008000330A802031C2728283084008313FB
:1000400000080319272825282528800B24280800C4
:1000500003081F39830083161F149F141F159F1157
:1000600007309C008313FB30870083120711A20125
:10007000A101A208031D942821081D3C031C9428FB
:10008000A401A301A408031D90282308633C031CBA
:100090009028FB3083168700831207152208A600DC
:1000A0002108A500A8012130A70004207908A60096
:1000B0007808A5002608A700A70AA7030319642843
:1000C000FF30A80019205D282508A8001920FB3062
:1000D00083168700831207112208A6002108A500B5
:1000E000A8012130A70004207908FA007808E83C2C
:1000F000A5000330A6007A08031C7A0FA602260882
:10010000A700A70AA70303198928FF30A800192010
:1001100082282508A8001920A30A0319A40A422846
:0E012000A10A0319A20A3928831633286300A6
:02400E00723FFF
:00000001FF
;PIC16F877A
;CRC=C170  CREATED="25-abr-18 11:01"
