:1000000001308A0040290000FC30831686008312EC
:1000100086148316860083120615831686008312C3
:10002000861083168600831206116929370807395E
:10003000B900B80803191E2808301F2800303904F9
:10004000B6006E29A630F700F70B24280000080040
:10005000FC30831686008312061122200800430814
:100060000739F700430CF800F80CF80C1F30F805BE
:10007000780845078400831346188317F801F80AA7
:10008000F70A4328F80DF70B4228C40803194B2838
:10009000780880044E28F80978088005080043088D
:1000A0000739F700430CF800F80CF80C1F30F8057E
:1000B0007808440784008313451883170008F80064
:1000C000F70A6328F80CF70B6228E1283D08BE0008
:1000D0003130BF003230C000C1014108073C031C71
:1000E000A928FC30831686008312861022203E1C2D
:1000F00088284008C3000130C400C601C5012F2074
:100100004008C300C401C6018030C5002F209528D7
:100110004008C300C401C601C5012F204008C30028
:10012000C401C6018030C5002F2022203F08C30033
:100130000130C400C601C5012F203F08C300C4011F
:10014000C6018030C5002F2022200310BE0CC10A3A
:100150006D283F08C300C401C601C5012F203F0818
:10016000C300C401C6018030C5002F204008C30071
:100170000130C400C601C5012F204008C300C401DE
:10018000C6018030C5002F2022203F08C300013067
:10019000C400C601C5012F203F08C300C401C60129
:1001A0008030C5002F2022204008C3000130C40049
:1001B000C6018030C5002F204008C300C501C4011E
:1001C0004F28C2017818C20AC208031DF42840084B
:1001D000C300C401C601C5012F204008C300C401EB
:1001E000C6018030C5002F2022203F08C300C40173
:1001F000C601C5012F203F08C300C401C6018030DD
:10020000C5002F2022204208F8000800FC30831689
:100210008600831206112220FC308316860083128A
:1002200086142220FC3083168600831206152220B5
:10023000080028204030BD006620062128203A080A
:100240000339C03EBC00BD006620BB0139083B023B
:10025000031836293B08370784008313381883179F
:100260000008BC00BD006620BB0A26290621282004
:1002700036080F39803EBC00BD0066200621752976
:1002800003081F39830007309F008313A001A101D9
:100290003F30A6000630A7005B30A8004F30A90011
:1002A0006630AA006D30AB007D30AC000730AD0089
:1002B0007F30AE006F30AF007730B0007C30B100DF
:1002C0003930B2005E30B3007930B4007130B5001F
:1002D00004280730B7000130B8001628B8012808F4
:0E02E000B7000430B900BA011929752963006E
:02400E00623F0F
:00000001FF
;PIC16F628A
;CRC=856F  CREATED="23-abr-18 21:50"
